{
  "_format": "hh-sol-artifact-1",
  "contractName": "Marketplace",
  "sourceName": "src/backend/contracts/Marketplace.sol",
  "abi": [
    {
      "inputs": [
        {
          "internalType": "uint256",
          "name": "_feePercent",
          "type": "uint256"
        }
      ],
      "stateMutability": "nonpayable",
      "type": "constructor"
    },
    {
      "anonymous": false,
      "inputs": [
        {
          "indexed": false,
          "internalType": "uint256",
          "name": "itemId",
          "type": "uint256"
        },
        {
          "indexed": true,
          "internalType": "address",
          "name": "nft",
          "type": "address"
        },
        {
          "indexed": false,
          "internalType": "uint256",
          "name": "tokenId",
          "type": "uint256"
        },
        {
          "indexed": false,
          "internalType": "uint256",
          "name": "price",
          "type": "uint256"
        },
        {
          "indexed": true,
          "internalType": "address",
          "name": "seller",
          "type": "address"
        },
        {
          "indexed": true,
          "internalType": "address",
          "name": "buyer",
          "type": "address"
        },
        {
          "indexed": false,
          "internalType": "uint256",
          "name": "time",
          "type": "uint256"
        }
      ],
      "name": "Bought",
      "type": "event"
    },
    {
      "anonymous": false,
      "inputs": [
        {
          "indexed": false,
          "internalType": "uint256",
          "name": "itemId",
          "type": "uint256"
        },
        {
          "indexed": true,
          "internalType": "address",
          "name": "nft",
          "type": "address"
        },
        {
          "indexed": false,
          "internalType": "uint256",
          "name": "tokenId",
          "type": "uint256"
        },
        {
          "indexed": false,
          "internalType": "uint256",
          "name": "price",
          "type": "uint256"
        },
        {
          "indexed": true,
          "internalType": "address",
          "name": "seller",
          "type": "address"
        },
        {
          "indexed": false,
          "internalType": "uint256",
          "name": "time",
          "type": "uint256"
        }
      ],
      "name": "Offered",
      "type": "event"
    },
    {
      "inputs": [],
      "name": "feeAccount",
      "outputs": [
        {
          "internalType": "address payable",
          "name": "",
          "type": "address"
        }
      ],
      "stateMutability": "view",
      "type": "function"
    },
    {
      "inputs": [],
      "name": "feePercent",
      "outputs": [
        {
          "internalType": "uint256",
          "name": "",
          "type": "uint256"
        }
      ],
      "stateMutability": "view",
      "type": "function"
    },
    {
      "inputs": [
        {
          "internalType": "uint256",
          "name": "_itemId",
          "type": "uint256"
        }
      ],
      "name": "getTotalPrice",
      "outputs": [
        {
          "internalType": "uint256",
          "name": "",
          "type": "uint256"
        }
      ],
      "stateMutability": "view",
      "type": "function"
    },
    {
      "inputs": [],
      "name": "itemCount",
      "outputs": [
        {
          "internalType": "uint256",
          "name": "",
          "type": "uint256"
        }
      ],
      "stateMutability": "view",
      "type": "function"
    },
    {
      "inputs": [
        {
          "internalType": "uint256",
          "name": "",
          "type": "uint256"
        }
      ],
      "name": "items",
      "outputs": [
        {
          "internalType": "uint256",
          "name": "itemId",
          "type": "uint256"
        },
        {
          "internalType": "contract IERC721",
          "name": "nft",
          "type": "address"
        },
        {
          "internalType": "uint256",
          "name": "tokenId",
          "type": "uint256"
        },
        {
          "internalType": "uint256",
          "name": "price",
          "type": "uint256"
        },
        {
          "internalType": "address payable",
          "name": "seller",
          "type": "address"
        },
        {
          "internalType": "bool",
          "name": "sold",
          "type": "bool"
        }
      ],
      "stateMutability": "view",
      "type": "function"
    },
    {
      "inputs": [
        {
          "internalType": "contract IERC721",
          "name": "_nft",
          "type": "address"
        },
        {
          "internalType": "uint256",
          "name": "_tokenId",
          "type": "uint256"
        },
        {
          "internalType": "uint256",
          "name": "_price",
          "type": "uint256"
        }
      ],
      "name": "makeItem",
      "outputs": [],
      "stateMutability": "nonpayable",
      "type": "function"
    },
    {
      "inputs": [
        {
          "internalType": "uint256",
          "name": "_itemId",
          "type": "uint256"
        }
      ],
      "name": "purchaseItem",
      "outputs": [],
      "stateMutability": "payable",
      "type": "function"
    },
    {
      "inputs": [
        {
          "internalType": "uint256",
          "name": "_itemId",
          "type": "uint256"
        }
      ],
      "name": "upForSale",
      "outputs": [],
      "stateMutability": "nonpayable",
      "type": "function"
    }
  ],
  "bytecode": "0x60c060405234801561001057600080fd5b506040516112e43803806112e483398181016040528101906100329190610094565b60016000819055503373ffffffffffffffffffffffffffffffffffffffff1660808173ffffffffffffffffffffffffffffffffffffffff1660601b815250508060a08181525050506100de565b60008151905061008e816100c7565b92915050565b6000602082840312156100a657600080fd5b60006100b48482850161007f565b91505092915050565b6000819050919050565b6100d0816100bd565b81146100db57600080fd5b50565b60805160601c60a0516111d06101146000396000818161021a01526102cb0152600081816101f001526104f101526111d06000f3fe60806040526004361061007b5760003560e01c8063ca7dd3751161004e578063ca7dd37514610143578063d38ea5bf14610180578063ddede9bb1461019c578063fa00afc7146101c55761007b565b806365e17c9d146100805780636bfb0d01146100ab5780637fd6f15c146100d6578063bfb231d214610101575b600080fd5b34801561008c57600080fd5b506100956101ee565b6040516100a29190610c8f565b60405180910390f35b3480156100b757600080fd5b506100c0610212565b6040516100cd9190610d81565b60405180910390f35b3480156100e257600080fd5b506100eb610218565b6040516100f89190610d81565b60405180910390f35b34801561010d57600080fd5b5061012860048036038101906101239190610b6c565b61023c565b60405161013a96959493929190610d9c565b60405180910390f35b34801561014f57600080fd5b5061016a60048036038101906101659190610b6c565b6102c5565b6040516101779190610d81565b60405180910390f35b61019a60048036038101906101959190610b6c565b610328565b005b3480156101a857600080fd5b506101c360048036038101906101be9190610b6c565b6106f8565b005b3480156101d157600080fd5b506101ec60048036038101906101e79190610b1d565b61081f565b005b7f000000000000000000000000000000000000000000000000000000000000000081565b60015481565b7f000000000000000000000000000000000000000000000000000000000000000081565b60026020528060005260406000206000915090508060000154908060010160009054906101000a900473ffffffffffffffffffffffffffffffffffffffff16908060020154908060030154908060040160009054906101000a900473ffffffffffffffffffffffffffffffffffffffff16908060040160149054906101000a900460ff16905086565b600060647f000000000000000000000000000000000000000000000000000000000000000060646102f69190610e53565b60026000858152602001908152602001600020600301546103179190610eda565b6103219190610ea9565b9050919050565b6002600054141561036e576040517f08c379a000000000000000000000000000000000000000000000000000000000815260040161036590610d61565b60405180910390fd5b60026000819055506000610381826102c5565b905060006002600084815260200190815260200160002090506000831180156103ac57506001548311155b6103eb576040517f08c379a00000000000000000000000000000000000000000000000000000000081526004016103e290610d41565b60405180910390fd5b8134101561042e576040517f08c379a000000000000000000000000000000000000000000000000000000000815260040161042590610d01565b60405180910390fd5b8060040160149054906101000a900460ff1615610480576040517f08c379a000000000000000000000000000000000000000000000000000000000815260040161047790610ce1565b60405180910390fd5b8060040160009054906101000a900473ffffffffffffffffffffffffffffffffffffffff1673ffffffffffffffffffffffffffffffffffffffff166108fc82600301549081150290604051600060405180830381858888f193505050501580156104ee573d6000803e3d6000fd5b507f000000000000000000000000000000000000000000000000000000000000000073ffffffffffffffffffffffffffffffffffffffff166108fc8260030154846105399190610f34565b9081150290604051600060405180830381858888f19350505050158015610564573d6000803e3d6000fd5b5060018160040160146101000a81548160ff0219169083151502179055508060010160009054906101000a900473ffffffffffffffffffffffffffffffffffffffff1673ffffffffffffffffffffffffffffffffffffffff166323b872dd303384600201546040518463ffffffff1660e01b81526004016105e793929190610caa565b600060405180830381600087803b15801561060157600080fd5b505af1158015610615573d6000803e3d6000fd5b505050503373ffffffffffffffffffffffffffffffffffffffff168160040160009054906101000a900473ffffffffffffffffffffffffffffffffffffffff1673ffffffffffffffffffffffffffffffffffffffff168260010160009054906101000a900473ffffffffffffffffffffffffffffffffffffffff1673ffffffffffffffffffffffffffffffffffffffff167fd78abc9e0d4dfe3f1e95dc2c5f8a6e6a3af57ab1174162e12eb01b661099ae008685600201548660030154426040516106e39493929190610dfd565b60405180910390a45050600160008190555050565b6002600054141561073e576040517f08c379a000000000000000000000000000000000000000000000000000000000815260040161073590610d61565b60405180910390fd5b6002600081905550600060026000838152602001908152602001600020905060008160040160146101000a81548160ff0219169083151502179055503373ffffffffffffffffffffffffffffffffffffffff168160010160009054906101000a900473ffffffffffffffffffffffffffffffffffffffff1673ffffffffffffffffffffffffffffffffffffffff167f68691bf1ff4da1d17e26d154d655adee05f2c30e99638bfce346224ffd490995600154846002015485600301544260405161080b9493929190610dfd565b60405180910390a350600160008190555050565b60026000541415610865576040517f08c379a000000000000000000000000000000000000000000000000000000000815260040161085c90610d61565b60405180910390fd5b6002600081905550600081116108b0576040517f08c379a00000000000000000000000000000000000000000000000000000000081526004016108a790610d21565b60405180910390fd5b600160008154809291906108c390610ff8565b91905055508273ffffffffffffffffffffffffffffffffffffffff166323b872dd3330856040518463ffffffff1660e01b815260040161090593929190610caa565b600060405180830381600087803b15801561091f57600080fd5b505af1158015610933573d6000803e3d6000fd5b505050506040518060c0016040528060015481526020018473ffffffffffffffffffffffffffffffffffffffff1681526020018381526020018281526020013373ffffffffffffffffffffffffffffffffffffffff168152602001600015158152506002600060015481526020019081526020016000206000820151816000015560208201518160010160006101000a81548173ffffffffffffffffffffffffffffffffffffffff021916908373ffffffffffffffffffffffffffffffffffffffff160217905550604082015181600201556060820151816003015560808201518160040160006101000a81548173ffffffffffffffffffffffffffffffffffffffff021916908373ffffffffffffffffffffffffffffffffffffffff16021790555060a08201518160040160146101000a81548160ff0219169083151502179055509050503373ffffffffffffffffffffffffffffffffffffffff168373ffffffffffffffffffffffffffffffffffffffff167f68691bf1ff4da1d17e26d154d655adee05f2c30e99638bfce346224ffd490995600154858542604051610ade9493929190610dfd565b60405180910390a36001600081905550505050565b600081359050610b028161116c565b92915050565b600081359050610b1781611183565b92915050565b600080600060608486031215610b3257600080fd5b6000610b4086828701610af3565b9350506020610b5186828701610b08565b9250506040610b6286828701610b08565b9150509250925092565b600060208284031215610b7e57600080fd5b6000610b8c84828501610b08565b91505092915050565b610b9e81610f7a565b82525050565b610bad81610f68565b82525050565b610bbc81610f8c565b82525050565b610bcb81610fd4565b82525050565b6000610bde601183610e42565b9150610be98261109f565b602082019050919050565b6000610c01601583610e42565b9150610c0c826110c8565b602082019050919050565b6000610c24602083610e42565b9150610c2f826110f1565b602082019050919050565b6000610c47601383610e42565b9150610c528261111a565b602082019050919050565b6000610c6a601f83610e42565b9150610c7582611143565b602082019050919050565b610c8981610fca565b82525050565b6000602082019050610ca46000830184610b95565b92915050565b6000606082019050610cbf6000830186610ba4565b610ccc6020830185610ba4565b610cd96040830184610c80565b949350505050565b60006020820190508181036000830152610cfa81610bd1565b9050919050565b60006020820190508181036000830152610d1a81610bf4565b9050919050565b60006020820190508181036000830152610d3a81610c17565b9050919050565b60006020820190508181036000830152610d5a81610c3a565b9050919050565b60006020820190508181036000830152610d7a81610c5d565b9050919050565b6000602082019050610d966000830184610c80565b92915050565b600060c082019050610db16000830189610c80565b610dbe6020830188610bc2565b610dcb6040830187610c80565b610dd86060830186610c80565b610de56080830185610b95565b610df260a0830184610bb3565b979650505050505050565b6000608082019050610e126000830187610c80565b610e1f6020830186610c80565b610e2c6040830185610c80565b610e396060830184610c80565b95945050505050565b600082825260208201905092915050565b6000610e5e82610fca565b9150610e6983610fca565b9250827fffffffffffffffffffffffffffffffffffffffffffffffffffffffffffffffff03821115610e9e57610e9d611041565b5b828201905092915050565b6000610eb482610fca565b9150610ebf83610fca565b925082610ecf57610ece611070565b5b828204905092915050565b6000610ee582610fca565b9150610ef083610fca565b9250817fffffffffffffffffffffffffffffffffffffffffffffffffffffffffffffffff0483118215151615610f2957610f28611041565b5b828202905092915050565b6000610f3f82610fca565b9150610f4a83610fca565b925082821015610f5d57610f5c611041565b5b828203905092915050565b6000610f7382610faa565b9050919050565b6000610f8582610faa565b9050919050565b60008115159050919050565b6000610fa382610f68565b9050919050565b600073ffffffffffffffffffffffffffffffffffffffff82169050919050565b6000819050919050565b6000610fdf82610fe6565b9050919050565b6000610ff182610faa565b9050919050565b600061100382610fca565b91507fffffffffffffffffffffffffffffffffffffffffffffffffffffffffffffffff82141561103657611035611041565b5b600182019050919050565b7f4e487b7100000000000000000000000000000000000000000000000000000000600052601160045260246000fd5b7f4e487b7100000000000000000000000000000000000000000000000000000000600052601260045260246000fd5b7f6974656d20616c726561647920736f6c64000000000000000000000000000000600082015250565b7f6e6f7420656e6f7567682065746865722073656e740000000000000000000000600082015250565b7f5072696365206d7573742062652067726561746572207468616e207a65726f21600082015250565b7f4974656d20646f6573206e6f7420657869737400000000000000000000000000600082015250565b7f5265656e7472616e637947756172643a207265656e7472616e742063616c6c00600082015250565b61117581610f98565b811461118057600080fd5b50565b61118c81610fca565b811461119757600080fd5b5056fea2646970667358221220d369e80c92bfe9b8c723bf5884281a3ac2ebf50c24e2547bcc9c09f0eb9c8e9e64736f6c63430008040033",
  "linkReferences": {},
  "deployedLinkReferences": {}
}